{
  "_format": "hh-sol-artifact-1",
  "contractName": "EnumMapMock",
  "sourceName": "contracts/mocks/algo/EnumMapMock.sol",
  "abi": [
    {
      "anonymous": false,
      "inputs": [
        {
          "indexed": false,
          "internalType": "bool",
          "name": "result",
          "type": "bool"
        }
      ],
      "name": "OperationResult",
      "type": "event"
    },
    {
      "inputs": [
        {
          "internalType": "uint256",
          "name": "index",
          "type": "uint256"
        }
      ],
      "name": "at",
      "outputs": [
        {
          "internalType": "uint256",
          "name": "key",
          "type": "uint256"
        },
        {
          "internalType": "address",
          "name": "value",
          "type": "address"
        }
      ],
      "stateMutability": "view",
      "type": "function"
    },
    {
      "inputs": [
        {
          "internalType": "uint256",
          "name": "key",
          "type": "uint256"
        }
      ],
      "name": "contains",
      "outputs": [
        {
          "internalType": "bool",
          "name": "",
          "type": "bool"
        }
      ],
      "stateMutability": "view",
      "type": "function"
    },
    {
      "inputs": [
        {
          "internalType": "uint256",
          "name": "key",
          "type": "uint256"
        }
      ],
      "name": "get",
      "outputs": [
        {
          "internalType": "address",
          "name": "",
          "type": "address"
        }
      ],
      "stateMutability": "view",
      "type": "function"
    },
    {
      "inputs": [],
      "name": "length",
      "outputs": [
        {
          "internalType": "uint256",
          "name": "",
          "type": "uint256"
        }
      ],
      "stateMutability": "view",
      "type": "function"
    },
    {
      "inputs": [
        {
          "internalType": "uint256",
          "name": "key",
          "type": "uint256"
        }
      ],
      "name": "remove",
      "outputs": [],
      "stateMutability": "nonpayable",
      "type": "function"
    },
    {
      "inputs": [
        {
          "internalType": "uint256",
          "name": "key",
          "type": "uint256"
        },
        {
          "internalType": "address",
          "name": "value",
          "type": "address"
        }
      ],
      "name": "set",
      "outputs": [],
      "stateMutability": "nonpayable",
      "type": "function"
    }
  ],
  "bytecode": "0x608060405234801561001057600080fd5b506105be806100206000396000f3fe608060405234801561001057600080fd5b50600436106100725760003560e01c80639507d39a116100505780639507d39a146100e9578063c34052e01461012f578063e0886f901461016057610072565b80631f7b6d32146100775780632f30c6f6146100915780634cc82215146100cc575b600080fd5b61007f6101ab565b60408051918252519081900360200190f35b6100ca600480360360408110156100a757600080fd5b508035906020013573ffffffffffffffffffffffffffffffffffffffff166101bc565b005b6100ca600480360360208110156100e257600080fd5b503561021d565b610106600480360360208110156100ff57600080fd5b5035610266565b6040805173ffffffffffffffffffffffffffffffffffffffff9092168252519081900360200190f35b61014c6004803603602081101561014557600080fd5b5035610278565b604080519115158252519081900360200190f35b61017d6004803603602081101561017657600080fd5b5035610284565b6040805192835273ffffffffffffffffffffffffffffffffffffffff90911660208301528051918290030190f35b60006101b7600061029f565b905090565b60006101df818473ffffffffffffffffffffffffffffffffffffffff85166102a3565b60408051821515815290519192507fed9840e0775590557ad736875d96c95cf1458b766335f74339951a32c82a9e33919081900360200190a1505050565b6000610229818361033d565b60408051821515815290519192507fed9840e0775590557ad736875d96c95cf1458b766335f74339951a32c82a9e33919081900360200190a15050565b6000610272818361041b565b92915050565b600061027281836104c5565b600080808061029381866104dd565b90945092505050915091565b5490565b600082815260018401602052604081205480610308575050604080518082018252838152602080820184815286546001818101895560008981528481209551600290930290950191825591519082015586548684528188019092529290912055610336565b8285600001600183038154811061031b57fe5b90600052602060002090600202016001018190555060009150505b9392505050565b60008181526001830160205260408120548015610411578354600019808301919081019060009087908390811061037057fe5b906000526020600020906002020190508087600001848154811061039057fe5b6000918252602080832084546002909302019182556001938401549184019190915583548252898301905260409020908401905586548790806103cf57fe5b60008281526020808220600260001990940193840201828155600190810183905592909355888152898201909252604082209190915594506102729350505050565b5060009392505050565b60008181526001830160205260408120548061049857604080517f08c379a000000000000000000000000000000000000000000000000000000000815260206004820152601860248201527f456e756d4d61703a206e6f6e6578697374656e74206b65790000000000000000604482015290519081900360640190fd5b8360000160018203815481106104aa57fe5b90600052602060002090600202016001015491505092915050565b60009081526001919091016020526040902054151590565b81546000908190831061055157604080517f08c379a000000000000000000000000000000000000000000000000000000000815260206004820152601c60248201527f456e756d4d61703a20696e646578206f7574206f6620626f756e647300000000604482015290519081900360640190fd5b600084600001848154811061056257fe5b90600052602060002090600202019050806000015481600101549250925050925092905056fea264697066735822122059e7c77c4a694ff41ef45d73cb3f093f912e0604105d5749c55f4a68160c364364736f6c63430007060033",
  "linkReferences": {},
  "deployedLinkReferences": {}
}