{
  "_format": "hh-sol-artifact-1",
  "contractName": "PauserRole",
  "sourceName": "contracts/access/PauserRole.sol",
  "abi": [
    {
      "inputs": [
        {
          "internalType": "address",
          "name": "owner_",
          "type": "address"
        }
      ],
      "stateMutability": "nonpayable",
      "type": "constructor"
    },
    {
      "anonymous": false,
      "inputs": [
        {
          "indexed": true,
          "internalType": "address",
          "name": "previousOwner",
          "type": "address"
        },
        {
          "indexed": true,
          "internalType": "address",
          "name": "newOwner",
          "type": "address"
        }
      ],
      "name": "OwnershipTransferred",
      "type": "event"
    },
    {
      "anonymous": false,
      "inputs": [
        {
          "indexed": true,
          "internalType": "address",
          "name": "account",
          "type": "address"
        }
      ],
      "name": "PauserAdded",
      "type": "event"
    },
    {
      "anonymous": false,
      "inputs": [
        {
          "indexed": true,
          "internalType": "address",
          "name": "account",
          "type": "address"
        }
      ],
      "name": "PauserRemoved",
      "type": "event"
    },
    {
      "inputs": [
        {
          "internalType": "address",
          "name": "account",
          "type": "address"
        }
      ],
      "name": "addPauser",
      "outputs": [],
      "stateMutability": "nonpayable",
      "type": "function"
    },
    {
      "inputs": [
        {
          "internalType": "address",
          "name": "",
          "type": "address"
        }
      ],
      "name": "isPauser",
      "outputs": [
        {
          "internalType": "bool",
          "name": "",
          "type": "bool"
        }
      ],
      "stateMutability": "view",
      "type": "function"
    },
    {
      "inputs": [],
      "name": "owner",
      "outputs": [
        {
          "internalType": "address",
          "name": "",
          "type": "address"
        }
      ],
      "stateMutability": "view",
      "type": "function"
    },
    {
      "inputs": [],
      "name": "renouncePauser",
      "outputs": [],
      "stateMutability": "nonpayable",
      "type": "function"
    },
    {
      "inputs": [
        {
          "internalType": "address",
          "name": "newOwner",
          "type": "address"
        }
      ],
      "name": "transferOwnership",
      "outputs": [],
      "stateMutability": "nonpayable",
      "type": "function"
    }
  ],
  "bytecode": "0x608060405234801561001057600080fd5b506040516105083803806105088339818101604052602081101561003357600080fd5b5051600080546001600160a01b0319166001600160a01b03831690811782556040518392907f8be0079c531659141344cd1fd0a4f28419497f9722a3daafe3b4186f6b6457e0908290a3506100878161008d565b506100dc565b6001600160a01b0381166000818152600160208190526040808320805460ff1916909217909155517f6719d08c1888103bea251a4ed56406bd0c3e69723c8a1686e017e7bbe159b6f89190a250565b61041d806100eb6000396000f3fe608060405234801561001057600080fd5b50600436106100675760003560e01c806382dc1ec41161005057806382dc1ec4146100b05780638da5cb5b146100d6578063f2fde38b146100fa57610067565b806346fbf68e1461006c5780636ef8d66d146100a6575b600080fd5b6100926004803603602081101561008257600080fd5b50356001600160a01b0316610120565b604080519115158252519081900360200190f35b6100ae610135565b005b6100ae600480360360208110156100c657600080fd5b50356001600160a01b0316610193565b6100de6101af565b604080516001600160a01b039092168252519081900360200190f35b6100ae6004803603602081101561011057600080fd5b50356001600160a01b03166101be565b60016020526000908152604090205460ff1681565b600061013f61022f565b905061014a81610233565b6001600160a01b038116600081815260016020526040808220805460ff19169055517fcd265ebaf09df2871cc7bd4133404a235ba12eff2041bb89d9c714a2621c7c7e9190a250565b6101a361019e61022f565b6102ba565b6101ac81610398565b50565b6000546001600160a01b031690565b6101c961019e61022f565b600080547fffffffffffffffffffffffff0000000000000000000000000000000000000000166001600160a01b0383811691821780845560405192939116917f8be0079c531659141344cd1fd0a4f28419497f9722a3daafe3b4186f6b6457e09190a350565b3390565b6001600160a01b03811660009081526001602052604090205460ff166101ac57604080517f08c379a000000000000000000000000000000000000000000000000000000000815260206004820152601860248201527f506175736572526f6c653a206e6f742061205061757365720000000000000000604482015290519081900360640190fd5b306001600160a01b0316638da5cb5b6040518163ffffffff1660e01b815260040160206040518083038186803b1580156102f357600080fd5b505afa158015610307573d6000803e3d6000fd5b505050506040513d602081101561031d57600080fd5b50516001600160a01b038281169116146101ac57604080517f08c379a000000000000000000000000000000000000000000000000000000000815260206004820152601660248201527f4f776e61626c653a206e6f7420746865206f776e657200000000000000000000604482015290519081900360640190fd5b6001600160a01b0381166000818152600160208190526040808320805460ff1916909217909155517f6719d08c1888103bea251a4ed56406bd0c3e69723c8a1686e017e7bbe159b6f89190a25056fea26469706673582212200cadee101e07809fe97028dc1c3394ee2350915e82fe54df5ca82051e75012f164736f6c63430007060033",
  "linkReferences": {},
  "deployedLinkReferences": {}
}