{
  "contracts/mocks/utils/types/Bytes32ToStringMock.sol": {
    "Bytes32ToStringMock": {
      "abi": [
        {
          "inputs": [
            {
              "internalType": "bytes32",
              "name": "_hash",
              "type": "bytes32"
            }
          ],
          "name": "toBase32String",
          "outputs": [
            {
              "internalType": "string",
              "name": "s",
              "type": "string"
            }
          ],
          "stateMutability": "pure",
          "type": "function"
        }
      ],
      "evm": {
        "bytecode": {
          "linkReferences": {},
          "object": "61022b610026600b82828239805160001a60731461001957fe5b30600052607381538281f3fe73000000000000000000000000000000000000000030146080604052600436106100355760003560e01c8063dea65fa11461003a575b600080fd5b6100576004803603602081101561005057600080fd5b50356100cc565b6040805160208082528351818301528351919283929083019185019080838360005b83811015610091578181015183820152602001610079565b50505050905090810190601f1680156100be5780820380516001836020036101000a031916815260200191505b509250505060405180910390f35b60606100d7826100dd565b92915050565b60408051603480825260608281019093527f6162636465666768696a6b6c6d6e6f707172737475767778797a323334353637918491906000908260208201818036833701905050905083601c600285901b166020811061013957fe5b1a60f81b8183600190039350838151811061015057fe5b60200101907effffffffffffffffffffffffffffffffffffffffffffffffffffffffffffff1916908160001a9053506008830492505b81156101ec5783602084066020811061019b57fe5b1a60f81b818360019003935083815181106101b257fe5b60200101907effffffffffffffffffffffffffffffffffffffffffffffffffffffffffffff1916908160001a905350602083049250610186565b9594505050505056fea2646970667358221220d05272e0237d3ef257ff8fa0ef9bd143cabc50d197602cd6f26d487285d7943e64736f6c63430007060033",
          "opcodes": "PUSH2 0x22B PUSH2 0x26 PUSH1 0xB DUP3 DUP3 DUP3 CODECOPY DUP1 MLOAD PUSH1 0x0 BYTE PUSH1 0x73 EQ PUSH2 0x19 JUMPI INVALID JUMPDEST ADDRESS PUSH1 0x0 MSTORE PUSH1 0x73 DUP2 MSTORE8 DUP3 DUP2 RETURN INVALID PUSH20 0x0 ADDRESS EQ PUSH1 0x80 PUSH1 0x40 MSTORE PUSH1 0x4 CALLDATASIZE LT PUSH2 0x35 JUMPI PUSH1 0x0 CALLDATALOAD PUSH1 0xE0 SHR DUP1 PUSH4 0xDEA65FA1 EQ PUSH2 0x3A JUMPI JUMPDEST PUSH1 0x0 DUP1 REVERT JUMPDEST PUSH2 0x57 PUSH1 0x4 DUP1 CALLDATASIZE SUB PUSH1 0x20 DUP2 LT ISZERO PUSH2 0x50 JUMPI PUSH1 0x0 DUP1 REVERT JUMPDEST POP CALLDATALOAD PUSH2 0xCC JUMP JUMPDEST PUSH1 0x40 DUP1 MLOAD PUSH1 0x20 DUP1 DUP3 MSTORE DUP4 MLOAD DUP2 DUP4 ADD MSTORE DUP4 MLOAD SWAP2 SWAP3 DUP4 SWAP3 SWAP1 DUP4 ADD SWAP2 DUP6 ADD SWAP1 DUP1 DUP4 DUP4 PUSH1 0x0 JUMPDEST DUP4 DUP2 LT ISZERO PUSH2 0x91 JUMPI DUP2 DUP2 ADD MLOAD DUP4 DUP3 ADD MSTORE PUSH1 0x20 ADD PUSH2 0x79 JUMP JUMPDEST POP POP POP POP SWAP1 POP SWAP1 DUP2 ADD SWAP1 PUSH1 0x1F AND DUP1 ISZERO PUSH2 0xBE JUMPI DUP1 DUP3 SUB DUP1 MLOAD PUSH1 0x1 DUP4 PUSH1 0x20 SUB PUSH2 0x100 EXP SUB NOT AND DUP2 MSTORE PUSH1 0x20 ADD SWAP2 POP JUMPDEST POP SWAP3 POP POP POP PUSH1 0x40 MLOAD DUP1 SWAP2 SUB SWAP1 RETURN JUMPDEST PUSH1 0x60 PUSH2 0xD7 DUP3 PUSH2 0xDD JUMP JUMPDEST SWAP3 SWAP2 POP POP JUMP JUMPDEST PUSH1 0x40 DUP1 MLOAD PUSH1 0x34 DUP1 DUP3 MSTORE PUSH1 0x60 DUP3 DUP2 ADD SWAP1 SWAP4 MSTORE PUSH32 0x6162636465666768696A6B6C6D6E6F707172737475767778797A323334353637 SWAP2 DUP5 SWAP2 SWAP1 PUSH1 0x0 SWAP1 DUP3 PUSH1 0x20 DUP3 ADD DUP2 DUP1 CALLDATASIZE DUP4 CALLDATACOPY ADD SWAP1 POP POP SWAP1 POP DUP4 PUSH1 0x1C PUSH1 0x2 DUP6 SWAP1 SHL AND PUSH1 0x20 DUP2 LT PUSH2 0x139 JUMPI INVALID JUMPDEST BYTE PUSH1 0xF8 SHL DUP2 DUP4 PUSH1 0x1 SWAP1 SUB SWAP4 POP DUP4 DUP2 MLOAD DUP2 LT PUSH2 0x150 JUMPI INVALID JUMPDEST PUSH1 0x20 ADD ADD SWAP1 PUSH31 0xFFFFFFFFFFFFFFFFFFFFFFFFFFFFFFFFFFFFFFFFFFFFFFFFFFFFFFFFFFFFFF NOT AND SWAP1 DUP2 PUSH1 0x0 BYTE SWAP1 MSTORE8 POP PUSH1 0x8 DUP4 DIV SWAP3 POP JUMPDEST DUP2 ISZERO PUSH2 0x1EC JUMPI DUP4 PUSH1 0x20 DUP5 MOD PUSH1 0x20 DUP2 LT PUSH2 0x19B JUMPI INVALID JUMPDEST BYTE PUSH1 0xF8 SHL DUP2 DUP4 PUSH1 0x1 SWAP1 SUB SWAP4 POP DUP4 DUP2 MLOAD DUP2 LT PUSH2 0x1B2 JUMPI INVALID JUMPDEST PUSH1 0x20 ADD ADD SWAP1 PUSH31 0xFFFFFFFFFFFFFFFFFFFFFFFFFFFFFFFFFFFFFFFFFFFFFFFFFFFFFFFFFFFFFF NOT AND SWAP1 DUP2 PUSH1 0x0 BYTE SWAP1 MSTORE8 POP PUSH1 0x20 DUP4 DIV SWAP3 POP PUSH2 0x186 JUMP JUMPDEST SWAP6 SWAP5 POP POP POP POP POP JUMP INVALID LOG2 PUSH5 0x6970667358 0x22 SLT KECCAK256 0xD0 MSTORE PUSH19 0xE0237D3EF257FF8FA0EF9BD143CABC50D19760 0x2C 0xD6 CALLCODE PUSH14 0x487285D7943E64736F6C63430007 MOD STOP CALLER "
        },
        "methodIdentifiers": {
          "toBase32String(bytes32)": "dea65fa1"
        }
      }
    }
  }
}