{
  "contracts/mocks/utils/types/UInt256ToStringMock.sol": {
    "UInt256ToStringMock": {
      "abi": [
        {
          "inputs": [
            {
              "internalType": "uint256",
              "name": "value",
              "type": "uint256"
            }
          ],
          "name": "toDecimalString",
          "outputs": [
            {
              "internalType": "string",
              "name": "result",
              "type": "string"
            }
          ],
          "stateMutability": "pure",
          "type": "function"
        },
        {
          "inputs": [
            {
              "internalType": "uint256",
              "name": "value",
              "type": "uint256"
            }
          ],
          "name": "toHexString",
          "outputs": [
            {
              "internalType": "string",
              "name": "result",
              "type": "string"
            }
          ],
          "stateMutability": "pure",
          "type": "function"
        }
      ],
      "evm": {
        "bytecode": {
          "linkReferences": {},
          "object": "610372610026600b82828239805160001a60731461001957fe5b30600052607381538281f3fe73000000000000000000000000000000000000000030146080604052600436106100405760003560e01c80638fba8d5c14610045578063e4eca9d6146100d7575b600080fd5b6100626004803603602081101561005b57600080fd5b50356100f4565b6040805160208082528351818301528351919283929083019185019080838360005b8381101561009c578181015183820152602001610084565b50505050905090810190601f1680156100c95780820380516001836020036101000a031916815260200191505b509250505060405180910390f35b610062600480360360208110156100ed57600080fd5b5035610105565b60606100ff82610110565b92915050565b60606100ff8261022d565b6040805181815260608181018352918391600f906000908360208201818036833701905050905060001983015b84156101b0578483166009811161015a578060300160f81b610162565b8060570160f81b5b83516000198401938591811061017457fe5b60200101907effffffffffffffffffffffffffffffffffffffffffffffffffffffffffffff1916908160001a905350600486901c95505061013d565b600081126102215781516000198201917f30000000000000000000000000000000000000000000000000000000000000009184919081106101ed57fe5b60200101907effffffffffffffffffffffffffffffffffffffffffffffffffffffffffffff1916908160001a9053506101b0565b5093505050505b919050565b60608161026e575060408051808201909152600181527f30000000000000000000000000000000000000000000000000000000000000006020820152610228565b8160005b811561028657600101600a82049150610272565b60008167ffffffffffffffff8111801561029f57600080fd5b506040519080825280601f01601f1916602001820160405280156102ca576020820181803683370190505b50859350905060001982015b831561033357600a840660300160f81b828280600190039350815181106102f957fe5b60200101907effffffffffffffffffffffffffffffffffffffffffffffffffffffffffffff1916908160001a905350600a840493506102d6565b5094935050505056fea2646970667358221220860408612ba9312d71fac22f40801d8223b1891e437995400372d977a1eaed6d64736f6c63430007060033",
          "opcodes": "PUSH2 0x372 PUSH2 0x26 PUSH1 0xB DUP3 DUP3 DUP3 CODECOPY DUP1 MLOAD PUSH1 0x0 BYTE PUSH1 0x73 EQ PUSH2 0x19 JUMPI INVALID JUMPDEST ADDRESS PUSH1 0x0 MSTORE PUSH1 0x73 DUP2 MSTORE8 DUP3 DUP2 RETURN INVALID PUSH20 0x0 ADDRESS EQ PUSH1 0x80 PUSH1 0x40 MSTORE PUSH1 0x4 CALLDATASIZE LT PUSH2 0x40 JUMPI PUSH1 0x0 CALLDATALOAD PUSH1 0xE0 SHR DUP1 PUSH4 0x8FBA8D5C EQ PUSH2 0x45 JUMPI DUP1 PUSH4 0xE4ECA9D6 EQ PUSH2 0xD7 JUMPI JUMPDEST PUSH1 0x0 DUP1 REVERT JUMPDEST PUSH2 0x62 PUSH1 0x4 DUP1 CALLDATASIZE SUB PUSH1 0x20 DUP2 LT ISZERO PUSH2 0x5B JUMPI PUSH1 0x0 DUP1 REVERT JUMPDEST POP CALLDATALOAD PUSH2 0xF4 JUMP JUMPDEST PUSH1 0x40 DUP1 MLOAD PUSH1 0x20 DUP1 DUP3 MSTORE DUP4 MLOAD DUP2 DUP4 ADD MSTORE DUP4 MLOAD SWAP2 SWAP3 DUP4 SWAP3 SWAP1 DUP4 ADD SWAP2 DUP6 ADD SWAP1 DUP1 DUP4 DUP4 PUSH1 0x0 JUMPDEST DUP4 DUP2 LT ISZERO PUSH2 0x9C JUMPI DUP2 DUP2 ADD MLOAD DUP4 DUP3 ADD MSTORE PUSH1 0x20 ADD PUSH2 0x84 JUMP JUMPDEST POP POP POP POP SWAP1 POP SWAP1 DUP2 ADD SWAP1 PUSH1 0x1F AND DUP1 ISZERO PUSH2 0xC9 JUMPI DUP1 DUP3 SUB DUP1 MLOAD PUSH1 0x1 DUP4 PUSH1 0x20 SUB PUSH2 0x100 EXP SUB NOT AND DUP2 MSTORE PUSH1 0x20 ADD SWAP2 POP JUMPDEST POP SWAP3 POP POP POP PUSH1 0x40 MLOAD DUP1 SWAP2 SUB SWAP1 RETURN JUMPDEST PUSH2 0x62 PUSH1 0x4 DUP1 CALLDATASIZE SUB PUSH1 0x20 DUP2 LT ISZERO PUSH2 0xED JUMPI PUSH1 0x0 DUP1 REVERT JUMPDEST POP CALLDATALOAD PUSH2 0x105 JUMP JUMPDEST PUSH1 0x60 PUSH2 0xFF DUP3 PUSH2 0x110 JUMP JUMPDEST SWAP3 SWAP2 POP POP JUMP JUMPDEST PUSH1 0x60 PUSH2 0xFF DUP3 PUSH2 0x22D JUMP JUMPDEST PUSH1 0x40 DUP1 MLOAD DUP2 DUP2 MSTORE PUSH1 0x60 DUP2 DUP2 ADD DUP4 MSTORE SWAP2 DUP4 SWAP2 PUSH1 0xF SWAP1 PUSH1 0x0 SWAP1 DUP4 PUSH1 0x20 DUP3 ADD DUP2 DUP1 CALLDATASIZE DUP4 CALLDATACOPY ADD SWAP1 POP POP SWAP1 POP PUSH1 0x0 NOT DUP4 ADD JUMPDEST DUP5 ISZERO PUSH2 0x1B0 JUMPI DUP5 DUP4 AND PUSH1 0x9 DUP2 GT PUSH2 0x15A JUMPI DUP1 PUSH1 0x30 ADD PUSH1 0xF8 SHL PUSH2 0x162 JUMP JUMPDEST DUP1 PUSH1 0x57 ADD PUSH1 0xF8 SHL JUMPDEST DUP4 MLOAD PUSH1 0x0 NOT DUP5 ADD SWAP4 DUP6 SWAP2 DUP2 LT PUSH2 0x174 JUMPI INVALID JUMPDEST PUSH1 0x20 ADD ADD SWAP1 PUSH31 0xFFFFFFFFFFFFFFFFFFFFFFFFFFFFFFFFFFFFFFFFFFFFFFFFFFFFFFFFFFFFFF NOT AND SWAP1 DUP2 PUSH1 0x0 BYTE SWAP1 MSTORE8 POP PUSH1 0x4 DUP7 SWAP1 SHR SWAP6 POP POP PUSH2 0x13D JUMP JUMPDEST PUSH1 0x0 DUP2 SLT PUSH2 0x221 JUMPI DUP2 MLOAD PUSH1 0x0 NOT DUP3 ADD SWAP2 PUSH32 0x3000000000000000000000000000000000000000000000000000000000000000 SWAP2 DUP5 SWAP2 SWAP1 DUP2 LT PUSH2 0x1ED JUMPI INVALID JUMPDEST PUSH1 0x20 ADD ADD SWAP1 PUSH31 0xFFFFFFFFFFFFFFFFFFFFFFFFFFFFFFFFFFFFFFFFFFFFFFFFFFFFFFFFFFFFFF NOT AND SWAP1 DUP2 PUSH1 0x0 BYTE SWAP1 MSTORE8 POP PUSH2 0x1B0 JUMP JUMPDEST POP SWAP4 POP POP POP POP JUMPDEST SWAP2 SWAP1 POP JUMP JUMPDEST PUSH1 0x60 DUP2 PUSH2 0x26E JUMPI POP PUSH1 0x40 DUP1 MLOAD DUP1 DUP3 ADD SWAP1 SWAP2 MSTORE PUSH1 0x1 DUP2 MSTORE PUSH32 0x3000000000000000000000000000000000000000000000000000000000000000 PUSH1 0x20 DUP3 ADD MSTORE PUSH2 0x228 JUMP JUMPDEST DUP2 PUSH1 0x0 JUMPDEST DUP2 ISZERO PUSH2 0x286 JUMPI PUSH1 0x1 ADD PUSH1 0xA DUP3 DIV SWAP2 POP PUSH2 0x272 JUMP JUMPDEST PUSH1 0x0 DUP2 PUSH8 0xFFFFFFFFFFFFFFFF DUP2 GT DUP1 ISZERO PUSH2 0x29F JUMPI PUSH1 0x0 DUP1 REVERT JUMPDEST POP PUSH1 0x40 MLOAD SWAP1 DUP1 DUP3 MSTORE DUP1 PUSH1 0x1F ADD PUSH1 0x1F NOT AND PUSH1 0x20 ADD DUP3 ADD PUSH1 0x40 MSTORE DUP1 ISZERO PUSH2 0x2CA JUMPI PUSH1 0x20 DUP3 ADD DUP2 DUP1 CALLDATASIZE DUP4 CALLDATACOPY ADD SWAP1 POP JUMPDEST POP DUP6 SWAP4 POP SWAP1 POP PUSH1 0x0 NOT DUP3 ADD JUMPDEST DUP4 ISZERO PUSH2 0x333 JUMPI PUSH1 0xA DUP5 MOD PUSH1 0x30 ADD PUSH1 0xF8 SHL DUP3 DUP3 DUP1 PUSH1 0x1 SWAP1 SUB SWAP4 POP DUP2 MLOAD DUP2 LT PUSH2 0x2F9 JUMPI INVALID JUMPDEST PUSH1 0x20 ADD ADD SWAP1 PUSH31 0xFFFFFFFFFFFFFFFFFFFFFFFFFFFFFFFFFFFFFFFFFFFFFFFFFFFFFFFFFFFFFF NOT AND SWAP1 DUP2 PUSH1 0x0 BYTE SWAP1 MSTORE8 POP PUSH1 0xA DUP5 DIV SWAP4 POP PUSH2 0x2D6 JUMP JUMPDEST POP SWAP5 SWAP4 POP POP POP POP JUMP INVALID LOG2 PUSH5 0x6970667358 0x22 SLT KECCAK256 DUP7 DIV ADDMOD PUSH2 0x2BA9 BALANCE 0x2D PUSH18 0xFAC22F40801D8223B1891E437995400372D9 PUSH24 0xA1EAED6D64736F6C63430007060033000000000000000000 "
        },
        "methodIdentifiers": {
          "toDecimalString(uint256)": "e4eca9d6",
          "toHexString(uint256)": "8fba8d5c"
        }
      }
    }
  }
}