{
  "_format": "hh-sol-artifact-1",
  "contractName": "PayoutWalletMock",
  "sourceName": "contracts/mocks/payment/PayoutWalletMock.sol",
  "abi": [
    {
      "inputs": [
        {
          "internalType": "address payable",
          "name": "payoutWallet_",
          "type": "address"
        }
      ],
      "stateMutability": "nonpayable",
      "type": "constructor"
    },
    {
      "anonymous": false,
      "inputs": [
        {
          "indexed": true,
          "internalType": "address",
          "name": "previousOwner",
          "type": "address"
        },
        {
          "indexed": true,
          "internalType": "address",
          "name": "newOwner",
          "type": "address"
        }
      ],
      "name": "OwnershipTransferred",
      "type": "event"
    },
    {
      "anonymous": false,
      "inputs": [
        {
          "indexed": false,
          "internalType": "address",
          "name": "payoutWallet_",
          "type": "address"
        }
      ],
      "name": "PayoutWalletSet",
      "type": "event"
    },
    {
      "inputs": [],
      "name": "owner",
      "outputs": [
        {
          "internalType": "address",
          "name": "",
          "type": "address"
        }
      ],
      "stateMutability": "view",
      "type": "function"
    },
    {
      "inputs": [],
      "name": "payoutWallet",
      "outputs": [
        {
          "internalType": "address payable",
          "name": "",
          "type": "address"
        }
      ],
      "stateMutability": "view",
      "type": "function"
    },
    {
      "inputs": [
        {
          "internalType": "address payable",
          "name": "payoutWallet_",
          "type": "address"
        }
      ],
      "name": "setPayoutWallet",
      "outputs": [],
      "stateMutability": "nonpayable",
      "type": "function"
    },
    {
      "inputs": [
        {
          "internalType": "address",
          "name": "newOwner",
          "type": "address"
        }
      ],
      "name": "transferOwnership",
      "outputs": [],
      "stateMutability": "nonpayable",
      "type": "function"
    }
  ],
  "bytecode": "0x608060405234801561001057600080fd5b506040516104a43803806104a48339818101604052602081101561003357600080fd5b5051600080546001600160a01b03191633908117825560405190918391839182917f8be0079c531659141344cd1fd0a4f28419497f9722a3daafe3b4186f6b6457e0908290a3506001600160a01b0381166100d5576040805162461bcd60e51b815260206004820152601460248201527f5061796f75743a207a65726f2061646472657373000000000000000000000000604482015290519081900360640190fd5b600180546001600160a01b0383166001600160a01b0319909116811790915560408051918252517fdd880d24a789958a6398c99c2e54ce31bc10a638cbc42f7dd34285479ae0f8559181900360200190a150505061036c806101386000396000f3fe608060405234801561001057600080fd5b506004361061004c5760003560e01c80636b8f9c43146100515780638488bb4e146100795780638da5cb5b1461009d578063f2fde38b146100a5575b600080fd5b6100776004803603602081101561006757600080fd5b50356001600160a01b03166100cb565b005b6100816101c2565b604080516001600160a01b039092168252519081900360200190f35b6100816101d1565b610077600480360360208110156100bb57600080fd5b50356001600160a01b03166101e0565b6100db6100d6610251565b610255565b6001600160a01b03811661015057604080517f08c379a000000000000000000000000000000000000000000000000000000000815260206004820152601460248201527f5061796f75743a207a65726f2061646472657373000000000000000000000000604482015290519081900360640190fd5b600180547fffffffffffffffffffffffff0000000000000000000000000000000000000000166001600160a01b03838116919091179182905560408051929091168252517fdd880d24a789958a6398c99c2e54ce31bc10a638cbc42f7dd34285479ae0f855916020908290030190a150565b6001546001600160a01b031681565b6000546001600160a01b031690565b6101eb6100d6610251565b600080547fffffffffffffffffffffffff0000000000000000000000000000000000000000166001600160a01b0383811691821780845560405192939116917f8be0079c531659141344cd1fd0a4f28419497f9722a3daafe3b4186f6b6457e09190a350565b3390565b306001600160a01b0316638da5cb5b6040518163ffffffff1660e01b815260040160206040518083038186803b15801561028e57600080fd5b505afa1580156102a2573d6000803e3d6000fd5b505050506040513d60208110156102b857600080fd5b50516001600160a01b0382811691161461033357604080517f08c379a000000000000000000000000000000000000000000000000000000000815260206004820152601660248201527f4f776e61626c653a206e6f7420746865206f776e657200000000000000000000604482015290519081900360640190fd5b5056fea26469706673582212206685c77eea322ad20ef2c893bd5a33fe8ff1c6dbf71236e41c20e7e02d580da164736f6c63430007060033",
  "linkReferences": {},
  "deployedLinkReferences": {}
}