{
  "_format": "hh-sol-artifact-1",
  "contractName": "UInt256BitsMock",
  "sourceName": "contracts/mocks/utils/types/UInt256BitsMock.sol",
  "abi": [
    {
      "inputs": [
        {
          "internalType": "uint256",
          "name": "integer",
          "type": "uint256"
        },
        {
          "internalType": "uint8",
          "name": "length",
          "type": "uint8"
        },
        {
          "internalType": "uint8",
          "name": "index",
          "type": "uint8"
        }
      ],
      "name": "extract",
      "outputs": [
        {
          "internalType": "uint256",
          "name": "",
          "type": "uint256"
        }
      ],
      "stateMutability": "pure",
      "type": "function"
    },
    {
      "inputs": [
        {
          "internalType": "uint256",
          "name": "integer",
          "type": "uint256"
        },
        {
          "internalType": "uint256",
          "name": "value",
          "type": "uint256"
        },
        {
          "internalType": "uint8",
          "name": "length",
          "type": "uint8"
        },
        {
          "internalType": "uint8",
          "name": "index",
          "type": "uint8"
        }
      ],
      "name": "inject",
      "outputs": [
        {
          "internalType": "uint256",
          "name": "",
          "type": "uint256"
        }
      ],
      "stateMutability": "pure",
      "type": "function"
    },
    {
      "inputs": [
        {
          "internalType": "uint256",
          "name": "integer",
          "type": "uint256"
        },
        {
          "internalType": "uint256",
          "name": "value",
          "type": "uint256"
        },
        {
          "internalType": "uint8",
          "name": "length",
          "type": "uint8"
        },
        {
          "internalType": "uint8",
          "name": "index",
          "type": "uint8"
        }
      ],
      "name": "requireInjectExtractValueUnchanged",
      "outputs": [],
      "stateMutability": "pure",
      "type": "function"
    }
  ],
  "bytecode": "0x608060405234801561001057600080fd5b506103b5806100206000396000f3fe608060405234801561001057600080fd5b50600436106100415760003560e01c806324aa403214610046578063311699dd1461008c578063f37162c8146100c2575b600080fd5b61007a6004803603608081101561005c57600080fd5b5080359060208101359060ff604082013581169160600135166100f0565b60408051918252519081900360200190f35b6100c0600480360360808110156100a257600080fd5b5080359060208101359060ff6040820135811691606001351661010d565b005b61007a600480360360608110156100d857600080fd5b5080359060ff60208201358116916040013516610184565b6000610104858560ff80871690861661019f565b95945050505050565b61012b60ff8084169083166101248787848461019f565b91906102bf565b831461017e576040805162461bcd60e51b815260206004820152601560248201527f55496e74323536426974733a206d69736d617463680000000000000000000000604482015290519081900360640190fd5b50505050565b60006101978460ff8086169085166102bf565b949350505050565b60008083116101f5576040805162461bcd60e51b815260206004820152601d60248201527f55496e74323536496e6a6563743a206c656e677468206973207a65726f000000604482015290519081900360640190fd5b610100838301111561024e576040805162461bcd60e51b815260206004820152601a60248201527f55496e74323536496e6a6563743a206f7574206f6620626f6e64000000000000604482015290519081900360640190fd5b6000196001841b01808511156102ab576040805162461bcd60e51b815260206004820152601d60248201527f55496e74323536496e6a6563743a2076616c7565206f766572666c6f77000000604482015290519081900360640190fd5b821b199490941692901b9190911792915050565b6000808311610315576040805162461bcd60e51b815260206004820152601e60248201527f55496e74323536457874726163743a206c656e677468206973207a65726f0000604482015290519081900360640190fd5b610100838301111561036e576040805162461bcd60e51b815260206004820152601b60248201527f55496e74323536457874726163743a206f7574206f6620626f6e640000000000604482015290519081900360640190fd5b50600190911b6000190191901c169056fea26469706673582212206b0297817190f404bac5e5286cee4b7257190cb6ff216c2e05b59dcf01809c4c64736f6c63430007060033",
  "linkReferences": {},
  "deployedLinkReferences": {}
}