{
  "_format": "hh-sol-artifact-1",
  "contractName": "UInt256ToStringMock",
  "sourceName": "contracts/mocks/utils/types/UInt256ToStringMock.sol",
  "abi": [
    {
      "inputs": [
        {
          "internalType": "uint256",
          "name": "value",
          "type": "uint256"
        }
      ],
      "name": "toDecimalString",
      "outputs": [
        {
          "internalType": "string",
          "name": "result",
          "type": "string"
        }
      ],
      "stateMutability": "pure",
      "type": "function"
    },
    {
      "inputs": [
        {
          "internalType": "uint256",
          "name": "value",
          "type": "uint256"
        }
      ],
      "name": "toHexString",
      "outputs": [
        {
          "internalType": "string",
          "name": "result",
          "type": "string"
        }
      ],
      "stateMutability": "pure",
      "type": "function"
    }
  ],
  "bytecode": "0x610372610026600b82828239805160001a60731461001957fe5b30600052607381538281f3fe73000000000000000000000000000000000000000030146080604052600436106100405760003560e01c80638fba8d5c14610045578063e4eca9d6146100d7575b600080fd5b6100626004803603602081101561005b57600080fd5b50356100f4565b6040805160208082528351818301528351919283929083019185019080838360005b8381101561009c578181015183820152602001610084565b50505050905090810190601f1680156100c95780820380516001836020036101000a031916815260200191505b509250505060405180910390f35b610062600480360360208110156100ed57600080fd5b5035610105565b60606100ff82610110565b92915050565b60606100ff8261022d565b6040805181815260608181018352918391600f906000908360208201818036833701905050905060001983015b84156101b0578483166009811161015a578060300160f81b610162565b8060570160f81b5b83516000198401938591811061017457fe5b60200101907effffffffffffffffffffffffffffffffffffffffffffffffffffffffffffff1916908160001a905350600486901c95505061013d565b600081126102215781516000198201917f30000000000000000000000000000000000000000000000000000000000000009184919081106101ed57fe5b60200101907effffffffffffffffffffffffffffffffffffffffffffffffffffffffffffff1916908160001a9053506101b0565b5093505050505b919050565b60608161026e575060408051808201909152600181527f30000000000000000000000000000000000000000000000000000000000000006020820152610228565b8160005b811561028657600101600a82049150610272565b60008167ffffffffffffffff8111801561029f57600080fd5b506040519080825280601f01601f1916602001820160405280156102ca576020820181803683370190505b50859350905060001982015b831561033357600a840660300160f81b828280600190039350815181106102f957fe5b60200101907effffffffffffffffffffffffffffffffffffffffffffffffffffffffffffff1916908160001a905350600a840493506102d6565b5094935050505056fea2646970667358221220860408612ba9312d71fac22f40801d8223b1891e437995400372d977a1eaed6d64736f6c63430007060033",
  "linkReferences": {},
  "deployedLinkReferences": {}
}