{
  "_format": "hh-sol-artifact-1",
  "contractName": "EnumSetMock",
  "sourceName": "contracts/mocks/algo/EnumSetMock.sol",
  "abi": [
    {
      "anonymous": false,
      "inputs": [
        {
          "indexed": false,
          "internalType": "bool",
          "name": "result",
          "type": "bool"
        }
      ],
      "name": "OperationResult",
      "type": "event"
    },
    {
      "inputs": [
        {
          "internalType": "address",
          "name": "value",
          "type": "address"
        }
      ],
      "name": "add",
      "outputs": [],
      "stateMutability": "nonpayable",
      "type": "function"
    },
    {
      "inputs": [
        {
          "internalType": "uint256",
          "name": "index",
          "type": "uint256"
        }
      ],
      "name": "at",
      "outputs": [
        {
          "internalType": "address",
          "name": "",
          "type": "address"
        }
      ],
      "stateMutability": "view",
      "type": "function"
    },
    {
      "inputs": [
        {
          "internalType": "address",
          "name": "value",
          "type": "address"
        }
      ],
      "name": "contains",
      "outputs": [
        {
          "internalType": "bool",
          "name": "",
          "type": "bool"
        }
      ],
      "stateMutability": "view",
      "type": "function"
    },
    {
      "inputs": [],
      "name": "length",
      "outputs": [
        {
          "internalType": "uint256",
          "name": "",
          "type": "uint256"
        }
      ],
      "stateMutability": "view",
      "type": "function"
    },
    {
      "inputs": [
        {
          "internalType": "address",
          "name": "value",
          "type": "address"
        }
      ],
      "name": "remove",
      "outputs": [],
      "stateMutability": "nonpayable",
      "type": "function"
    }
  ],
  "bytecode": "0x608060405234801561001057600080fd5b50610456806100206000396000f3fe608060405234801561001057600080fd5b50600436106100675760003560e01c806329092d0e1161005057806329092d0e146100bb5780635dbe47e8146100ee578063e0886f901461013557610067565b80630a3b0a4f1461006c5780631f7b6d32146100a1575b600080fd5b61009f6004803603602081101561008257600080fd5b503573ffffffffffffffffffffffffffffffffffffffff1661017b565b005b6100a96101da565b60408051918252519081900360200190f35b61009f600480360360208110156100d157600080fd5b503573ffffffffffffffffffffffffffffffffffffffff166101eb565b6101216004803603602081101561010457600080fd5b503573ffffffffffffffffffffffffffffffffffffffff1661020d565b604080519115158252519081900360200190f35b6101526004803603602081101561014b57600080fd5b5035610235565b6040805173ffffffffffffffffffffffffffffffffffffffff9092168252519081900360200190f35b600061019d8173ffffffffffffffffffffffffffffffffffffffff8416610241565b60408051821515815290519192507fed9840e0775590557ad736875d96c95cf1458b766335f74339951a32c82a9e33919081900360200190a15050565b60006101e6600061028c565b905090565b600061019d8173ffffffffffffffffffffffffffffffffffffffff8416610290565b600061022f8173ffffffffffffffffffffffffffffffffffffffff8416610374565b92915050565b600061022f818361038c565b600061024d8383610374565b6102835750815460018181018455600084815260208082209093018490558454848252828601909352604090209190915561022f565b50600092915050565b5490565b6000818152600183016020526040812054801561036a5783547fffffffffffffffffffffffffffffffffffffffffffffffffffffffffffffffff80830191908101906000908790839081106102e157fe5b90600052602060002001549050808760000184815481106102fe57fe5b60009182526020808320909101929092558281526001898101909252604090209084019055865487908061032e57fe5b6001900381819060005260206000200160009055905586600101600087815260200190815260200160002060009055600194505050505061022f565b600091505061022f565b60009081526001919091016020526040902054151590565b815460009082106103fe57604080517f08c379a000000000000000000000000000000000000000000000000000000000815260206004820152601c60248201527f456e756d5365743a20696e646578206f7574206f6620626f756e647300000000604482015290519081900360640190fd5b82600001828154811061040d57fe5b906000526020600020015490509291505056fea2646970667358221220f81a6687f94ee49e2e7765d57e7b57b64174a9c882b53d20e69b1b86e30b304164736f6c63430007060033",
  "linkReferences": {},
  "deployedLinkReferences": {}
}