{
  "_format": "hh-sol-artifact-1",
  "contractName": "Bytes32ToStringMock",
  "sourceName": "contracts/mocks/utils/types/Bytes32ToStringMock.sol",
  "abi": [
    {
      "inputs": [
        {
          "internalType": "bytes32",
          "name": "_hash",
          "type": "bytes32"
        }
      ],
      "name": "toBase32String",
      "outputs": [
        {
          "internalType": "string",
          "name": "s",
          "type": "string"
        }
      ],
      "stateMutability": "pure",
      "type": "function"
    }
  ],
  "bytecode": "0x61022b610026600b82828239805160001a60731461001957fe5b30600052607381538281f3fe73000000000000000000000000000000000000000030146080604052600436106100355760003560e01c8063dea65fa11461003a575b600080fd5b6100576004803603602081101561005057600080fd5b50356100cc565b6040805160208082528351818301528351919283929083019185019080838360005b83811015610091578181015183820152602001610079565b50505050905090810190601f1680156100be5780820380516001836020036101000a031916815260200191505b509250505060405180910390f35b60606100d7826100dd565b92915050565b60408051603480825260608281019093527f6162636465666768696a6b6c6d6e6f707172737475767778797a323334353637918491906000908260208201818036833701905050905083601c600285901b166020811061013957fe5b1a60f81b8183600190039350838151811061015057fe5b60200101907effffffffffffffffffffffffffffffffffffffffffffffffffffffffffffff1916908160001a9053506008830492505b81156101ec5783602084066020811061019b57fe5b1a60f81b818360019003935083815181106101b257fe5b60200101907effffffffffffffffffffffffffffffffffffffffffffffffffffffffffffff1916908160001a905350602083049250610186565b9594505050505056fea2646970667358221220d05272e0237d3ef257ff8fa0ef9bd143cabc50d197602cd6f26d487285d7943e64736f6c63430007060033",
  "linkReferences": {},
  "deployedLinkReferences": {}
}